:020000021000EC
:10E000000C944FF00C946EF00C946EF00C946EF037
:10E010000C946EF00C946EF00C946EF00C946EF008
:10E020000C946EF00C946EF00C946EF00C946EF0F8
:10E030000C946EF00C946EF00C946EF00C946EF0E8
:10E040000C946EF00C946EF00C946EF00C946EF0D8
:10E050000C946EF00C946EF00C946EF00C946EF0C8
:10E060000C946EF00C946EF00C946EF00C946EF0B8
:10E070000C946EF00C946EF00C946EF00C946EF0A8
:10E080000C946EF00C946EF00C946EF00C946EF098
:10E090000C946EF0FFFFFFFFFFFFFF000000112454
:10E0A0001FBECFEFD0E1DEBFCDBF11E0A0E0B1E0F9
:10E0B000EAEEF5EF01E00BBF02C007900D92AA3027
:10E0C000B107D9F712E0AAE0B1E001C01D92A53472
:10E0D000B107E1F70E9470F00C94F4FA0C9400F090
:10E0E000CF93DF93F89484B7882359F014BE5098E7
:10E0F000589A89B18FEF9FEF90930E0180930D0195
:10E1000004C010920E0110920D0110921702569841
:10E1100055985E9A5D9AC8E1D2E081E08093D8007C
:10E1200082E08093E20084E08093E30083E18093C7
:10E13000E4000E94D2F08091D80082608093D800E1
:10E1400080911702882311F40E94BEF210920B01F5
:10E1500010920A0188E080931F028091250290911D
:10E16000260290931C0280931B02CE010E9423F58D
:10E170008823D9F780910A0190910B010196909321
:10E180000B0180930A0181529E4410F00C94000010
:10E19000CE010E94D3F5813069F30E9425F38823D4
:10E1A000E1F7BBCF20E030E0822F8295807F809323
:10E1B000ED00EEEEF0E01192E83FF105E1F72F5FA0
:10E1C0003F4F2F30310581F708954091ED0020E059
:10E1D00030E0822F8295807F8093ED008091EF0068
:10E1E000807C29F44093ED00822F90E008952F5F0A
:10E1F0003F4F2F30310569F74093ED008FEF90E0EE
:10E2000008958091EF00807C19F48FEF90E00895DD
:10E210009091EE00892F807E11F090E00895892F73
:10E220008F7119F480E090E0089590E00895BC01AA
:10E2300040E050E005C0E60FF71F8091FA008083B0
:10E24000242F8091EF004F5F5F4FE22FF0E090E0CE
:10E250008F709070E817F90774F30895AF92BF922A
:10E26000DF92EF92FF920F931F93CF93DF93CDB77F
:10E27000DEB721970FB6F894DEBF0FBECDBF88235F
:10E2800059F4DD24D39463E018E072E0A2E0B0E03A
:10E2900051E040E001E055C08091E2008E7719F432
:10E2A000DD24D39409C08091E20090E08E779070D5
:10E2B00095958795D82ED3948091E3008E7011F4B4
:10E2C00061E009C08091E30090E08E7090709595B8
:10E2D0008795682F6F5F8091E4008E70833010F413
:10E2E00072E009C08091E40090E08E709070959586
:10E2F0008795782F7F5F8091E4008077813110F4DB
:10E30000A2E00CC08091E40090E08077907024E05F
:10E31000959587952A95E1F7A82FAF5F272F260FB0
:10E32000312D311DC9018A0F911D089714F418E091
:10E3300004C0162F1F5F170F1A0FB1E050E041E025
:10E3400000E020E030E0822F8295807F8093ED0016
:10E35000EEEEF0E01192E83FF105E1F72F5F3F4F5D
:10E360002F30310581F7EE24AA24BB24FF2401308D
:10E3700019F031E0398384C00093D8000894A11CBF
:10E38000B11C8D2D8150880F8093E2002A2F269595
:10E3900030E02150304085E0220F331F8A95E1F7AD
:10E3A000862F90E00197880F991F282B2093E30078
:10E3B0002A2F30E021503040E4E0220F331FEA954D
:10E3C000E1F7872F90E00197880F991F282B216094
:10E3D0002093E400C50123E0969587952A95E1F7FF
:10E3E0008093E5001092ED001092EE0080E880939B
:10E3F000EF008AE08093D8008091D90082FFFCCFA3
:10E400008FEF8093DA00EE24B4CF8091EE0090E09D
:10E4100085FF11C08091EF008F738093EF00109201
:10E42000D8008091D90082FDFCCF198250E040E0F5
:10E43000FF24F3947BC08F719070892B11F050E012
:10E4400041E08091DA00282F30E085FF11C0EE20F6
:10E4500041F48091DA0080628093DA00EE24E39444
:10E4600007C08091DA0080628093DA0050E041E0DA
:10E470002F703070232B21F050E041E001E056C0B6
:10E48000513019F253C0B1117F5F7930E0F0A830FC
:10E49000D0F0193111F01F5F05C080E4D81631F0BB
:10E4A000D39418E072E0A2E0B0E0EDCF8091EF00ED
:10E4B0008F738093EF001092D8008091D90082FD75
:10E4C000FCCFFF243AC0763050F0272F30E08A2F5F
:10E4D00090E00196821793071CF47A2F7F5FA72F95
:10E4E000612F6150671B6A1B862F81508830E0F4D2
:10E4F0004A2F50E0272F30E02F5F3F4F260F311D6E
:10E50000CA01880F991F880F991F8217930764F01B
:10E51000CA01880F991F840F951F2817390724F007
:10E52000B1E051E040E005C0B1E0ADCF413009F4C9
:10E53000AACFE981E13009F41ACF8F2D90E021961E
:10E540000FB6F894DEBF0FBECDBFDF91CF911F9104
:10E550000F91FF90EF90DF90BF90AF90089581E012
:10E560008093D80082E08093E20084E08093E3000F
:10E5700083E18093E40081E090E0089510923E02F0
:10E5800010923F0210923B0210923A0221E030E0DA
:10E5900030933D0220933C02109244028BE990EEAE
:10E5A00044E0880F991F4A95E1F7909326028093E3
:10E5B0002502815F974020F01092260210922502DA
:10E5C0008FE092E090932102809320021092240227
:10E5D0001092230280EF97E090931E0280931D0219
:10E5E00082E090E090931A028093190282E392E015
:10E5F0009093300280932F023093290220932802B7
:10E600000895CF93DF93C7E2D2E0CE010E9423F5B5
:10E610008823D9F7C7E2D2E0CE010E94D3F581303A
:10E62000D9F3DF91CF910895809125029091260230
:10E63000069690932B0280932A021092320281E078
:10E6400080932E020E9401F30895CF93DF9388E018
:10E6500080931F02809125029091260290931C02C4
:10E6600080931B02C8E1D2E0CE010E9423F58823EB
:10E67000D9F7C8E1D2E0CE010E94D3F5482F81300E
:10E68000D1F3823019F480E090E0DAC120912502C4
:10E690003091260280911B0290911C02821B930BE9
:10E6A0008230910509F4A0C08330910530F40097C1
:10E6B00081F0019709F0C2C139C08430910509F495
:10E6C0006CC18430910508F4F1C0069709F0B6C119
:10E6D00086C140910F02842F90E08A59904E19F024
:10E6E0004F3F09F0ABC190911F02913009F0A6C1D4
:10E6F00080911702882339F49093170210923E02FA
:10E7000010923F0204C010921702109244023093FC
:10E710002B0220932A0282E080932E0283E08093D2
:10E720003202809117028093330286C180911702D2
:10E73000882309F483C180910F02803879F4809195
:10E7400010028F3F09F067C1809111028F3F09F0DD
:10E7500062C10E9473FA882389F55DC1882309F09C
:10E760005AC16091120270E0762F662780911302E1
:10E7700090E0682B792B8091100290E0982F8827E9
:10E780002091110230E0822B932B0E94C7F7109248
:10E7900024021092230281E08093440280913A0285
:10E7A00090913B02909343028093420280913C02FD
:10E7B00090913D0290934102809340028091250206
:10E7C00090912602019690932B0280932A02109238
:10E7D000320281E080932E0280914402813009F060
:10E7E0002BC110922E0228C180911702882309F4B0
:10E7F00025C180914402813009F00DC120911F0292
:10E800006091230270912402AFE0B2E0FB01E15F6E
:10E81000FE4F90E004C08D9181939F5F40E092177E
:10E82000D1F7620F711D7093240260932302693F38
:10E83000710538F480913C0290913D026817790788
:10E8400049F48FE091E00E94F0F7482F10922402E3
:10E8500010922302809125029091260202969093B5
:10E860002B0280932A0281E080932E02442321F41C
:10E8700082E080933202E0C04130A9F4109232026B
:10E8800010924402809142029091430290933B0285
:10E8900080933A02809140029091410290933D0210
:10E8A00080933C02C9C010924402B5C08091170207
:10E8B000882309F4C3C02D5F3F4F30932B02209370
:10E8C0002A0210922E026091120270E0762F6627C3
:10E8D0008091130290E0682B792B8091100290E0D8
:10E8E000982F88272091110230E0822B932B0E94D1
:10E8F000C7F780913A0290913B0290934302809334
:10E90000420280913C0290913D029093410280939B
:10E91000400280910F028823C9F488E080932E0280
:10E92000C2E3D2E068E070E0CE010E94EBF88823F9
:10E9300019F40E9401F3F6CF813029F480913C0252
:10E9400080932E0217C00E9414F316C0803809F07D
:10E9500062C00E946CF8882369F482E080932E02E2
:10E9600020913A0230913B02832F99278093320203
:10E97000209333020E9401F380914202909143025E
:10E9800090933B0280933A02809140029091410221
:10E9900090933D0280933C0251C0809117028823DE
:10E9A00009F44CC080910F028330A9F580911002C8
:10E9B000882331F480916000886080936000FFCFED
:10E9C000813049F58091110290E0982F882720919D
:10E9D000120230E0822B932B0E94B7F72FC0809158
:10E9E0001702882359F180910F028823B9F08130F2
:10E9F00029F4809110020E94C1F710C0823031F0DA
:10EA0000833049F4809110020E94C1F78091110275
:10EA10000E94C4F703C00E9414F310C08091250225
:10EA200090912602069690932B0280932A0281E011
:10EA300080932E02109232020E9401F381E090E056
:10EA4000DF91CF910895CF93DF93DC0180E6ED0154
:10EA50008A8789819A818130910509F04CC08EE0C6
:10EA60008C9380EE8093ED00EEEEF0E01192E83FA3
:10EA7000F105E1F78091EF008F7E8093EF00FD01BB
:10EA8000238184818295880F807E922F969596951A
:10EA90009695890F8093F3002295220F207E209374
:10EAA000F2008091EF008F7E8093EF00978140E02D
:10EAB00020E030E00BC0ED01E885F985E20FF31F9F
:10EAC00080818093FA004F5F2F5F3F4F491799F77E
:10EAD0008091F0008B7F8093F0008091EF00982B65
:10EAE0009093EF008091EF008F738093EF008091FF
:10EAF000EF00806451C0029711F08FEF50C01C925C
:10EB00001092ED00EEEEF0E01192E83FF105E1F732
:10EB10008091EF008F7E8093EF00FD01238184813F
:10EB20008295880F807E922F969596959695890F5F
:10EB30008093F3002295220F207E2093F200809193
:10EB4000EF008F7E8093EF00258186818295880F6C
:10EB5000807E922F969596959695890F8093F700D3
:10EB60002295220F207E2093F6008091F40084608D
:10EB70008093F4008091F0008B7F8093F00080916F
:10EB8000F40081608093F4008091EF008F73809394
:10EB9000EF008091EF0080688093EF0080E090E0CC
:10EBA000DF91CF9108951F93CF93DF93EC018A8576
:10EBB000882309F44BC08F3109F448C08F3F09F412
:10EBC00045C088818295807F8093ED000E9401F18D
:10EBD000182F803261F0813218F4882331F02BC075
:10EBE0008034F9F0803A39F502C081E02DC080917F
:10EBF000EF008F708F83888599850E9417F180912F
:10EC0000F3008295869587708C839091F2008091B5
:10EC1000F300880F880F880F929596959770890F4B
:10EC20008B831A878091EF008F738093EF0010928F
:10EC3000EE0080E009C01A878091EF008F73809307
:10EC4000EF001092EE0082E090E002C082E090E0DF
:10EC5000DF91CF911F9108950F930B01FC0101E00B
:10EC600007BFE895112407B600FCFDCF0F9108956A
:10EC70000F9307B600FCFDCFFC0105E007BFE89548
:10EC800007B600FCFDCF0F9108950F9307B600FC67
:10EC9000FDCFFC0103E007BFE89507B600FCFDCF00
:10ECA0000F9108952BB7A0E0B0E030E040E050E0D5
:10ECB000A90133272227822B932BA42BB52BABBF83
:10ECC000F92FE82FD895802D90E008952BB7A0E07C
:10ECD000B0E030E040E050E0A90133272227822B4A
:10ECE000932BA42BB52BABBFF92FE82FD895802DF4
:10ECF0000BB63196011C0BBED895902D0895CF937D
:10ED0000DF93BC016070C0E0D0E08BB79B0140E0B6
:10ED100050E090E0A0E0B0E0DC0199278827282BA4
:10ED2000392B4A2B5B2B4BBFF32FE22FD895202D8D
:10ED30000BB63196011C0BBED895302D2F5F3F4F7F
:10ED400019F080E090E108C06E5F7F4F2196C038D7
:10ED5000D105D9F680E090E07070862B972BDF917B
:10ED6000CF910895DF92EF92FF920F931F93DBB63E
:10ED7000EE24FF248701C801AA27BB278BBFC70148
:10ED80000E9445F680E091E0A0E0B0E0E80EF91EB8
:10ED90000A1F1B1F90E0E91690EEF90691E00907A3
:10EDA00090E0190741F7DBBE1F910F91FF90EF90A4
:10EDB000DF9008953F924F925F926F927F928F9271
:10EDC0009F92AF92BF92CF92DF92EF92FF920F93FA
:10EDD0001F93CF93DF934C012B01EA013FB6F894C8
:10EDE0008B01007083C082E090E0E80EF91E20974E
:10EDF00009F447C0E414F50440F0F40181914F0197
:10EE0000C82EDD242197C9F422C08BB7970140E0BA
:10EE100050E090E0A0E0B0E0DC0199278827282BA3
:10EE2000392B4A2B5B2B4BBFF32FE22FD895202D8C
:10EE3000C22EDD24A414B50451F4F40181914F01D4
:10EE400090E0782F66276C297D29219733C08BB7F6
:10EE5000950140E050E090E0A0E0B0E0DC019927AF
:10EE60008827282B392B4A2B5B2B4BBFF32FE22F04
:10EE7000D895202D822F90E0782F66276C297D2948
:10EE800019C08BB7970140E050E090E0A0E0B0E0FF
:10EE9000DC0199278827282B392B4A2B5B2B4BBF6A
:10EEA000F32FE22FD895602D0BB63196011C0BBEC7
:10EEB000D895702DC7010E942CF60894611C711C16
:10EEC00082E090E0A80EB91E90E86916710409F07E
:10EED0008ACFC8010E947FF6892B19F0C8010E94D1
:10EEE00045F6C8010E9438F600501F4F209741F0A8
:10EEF00058010894A11CB11C78016624772477CFAF
:10EF0000002401E107BFE89507B600FCFDCF37FEFE
:10EF100001C07894DF91CF911F910F91FF90EF90F6
:10EF2000DF90CF90BF90AF909F908F907F906F9029
:10EF30005F904F903F900895CF93DF93CDB7DEB7AA
:10EF400021970FB6F894DEBF0FBECDBF698341E0B5
:10EF500050E0BC01CE0101960E94DAF621960FB670
:10EF6000F894DEBF0FBECDBFDF91CF91089520E7AB
:10EF70008030920718F4FC01099408950C94000065
:10EF8000089580933E02089580933F0208959093E0
:10EF90003B0280933A02681B790B6F5F7F4F70933F
:10EFA0003D0260933C0208951F931BB721E02BBFE5
:10EFB0000E94DAF61BBF1F9108951F931BB721E033
:10EFC0002BBF0E949CF71BBF1F9108951F931BB777
:10EFD00021E02BBF0E9452F61BBF90E01F910895C5
:10EFE0000F931F93CF93DF938C01EB0180913E022F
:10EFF0008130C9F0813020F0843009F065C023C031
:10F0000085E990EE0E94E6F78F3F09F05DC08091A0
:10F010003F028BBF60913A0270913B02AE01C80182
:10F020000E94DAF620C085E990EE0E94E6F78F3F55
:10F0300009F04AC060913A0270913B02AE01C801EA
:10F040000E94B2FA10C085E990EE0E94E6F78F3F69
:10F0500011F560913A0270913B026C567F41AE010E
:10F06000C8010E94D4F780913A0290913B028C0F24
:10F070009D1F90933B0280933A0280913C029091B5
:10F080003D028C1B9D0B90933D0280933C0220E03F
:10F09000892BD9F417C085E990EE0E94E6F78E3FE0
:10F0A00099F480913A0290913B02019769F421977B
:10F0B00059F4F80180818C3F39F46CEF85E990EECA
:10F0C0000E94DDF721E001C02FEF822F90E0DF9159
:10F0D000CF911F910F91089580913E02813009F4E4
:10F0E00047C0813020F0843009F070C069C0809141
:10F0F0003F028BBF1BC080913A0290913B020E945D
:10F1000052F68F3F09F064C080913A0290913B0221
:10F11000019690933B0280933A0280913C02909139
:10F120003D02019790933D0280933C0280913C0206
:10F1300090913D02892BF9F649C080913A02909155
:10F140003B020E94A0FA8F3F09F042C080913A0230
:10F1500090913B02019690933B0280933A028091FA
:10F160003C0290913D02019790933D0280933C02B6
:10F1700080913C0290913D02892BF9F627C0809145
:10F180003A0290913B028C569F410E94E6F72091F3
:10F190003A0230913B02F901E050FF4F908189170C
:10F1A000B9F42F5F3F4F30933B0220933A02809196
:10F1B0003C0290913D02019790933D0280933C0266
:10F1C00080913C0290913D02892BC9F681E001C0FB
:10F1D00080E090E00895CF92DF92EF92FF920F933C
:10F1E0001F93CF93DF936C01EB0180913E0282303D
:10F1F00009F48FC0833030F4882371F0813009F036
:10F2000065C14BC0843009F4EFC0843008F4B9C044
:10F21000853009F05BC123C185E990EE0E94E6F7D5
:10F220008F3F39F085E990EE0E94E6F78E3F09F0B6
:10F230004DC180913F028BBF209741F080913C02ED
:10F2400090913D028C179D0708F4EC01EE24FF24F9
:10F2500020C086010E0D1F1D80913A0290913B0245
:10F260000E9452F6F801808380913A0290913B020D
:10F27000019690933B0280933A0280913C029091D8
:10F280003D02019790933D0280933C020894E11C5B
:10F29000F11CEC16FD06E9F6D7C085E990EE0E9458
:10F2A000E6F78F3F39F085E990EE0E94E6F78E3F52
:10F2B00009F00CC180913C0290913D028C179D0792
:10F2C00008F4EC01EE24FF2420C086010E0D1F1D62
:10F2D00080913A0290913B020E94A0FAF80180834B
:10F2E00080913A0290913B02019690933B02809369
:10F2F0003A0280913C0290913D02019790933D0229
:10F3000080933C020894E11CF11CEC16FD06E9F622
:10F310009BC080913C0290913D028617970708F4AC
:10F32000BC01F60120E030E028C080913A029091C3
:10F330003B02009711F48EE104C08130910519F46D
:10F3400081E8808305C0029711F487E9FACF108223
:10F3500080913A0290913B02019690933B028093F8
:10F360003A0280913C0290913D02019790933D02B8
:10F3700080933C022F5F3F4F319626173707A9F63F
:10F3800099C080913C0290913D028617970708F43E
:10F39000BC01F60120E030E023C080913A02909158
:10F3A0003B02009711F483E005C0019711F481ED51
:10F3B00001C082ED808380913A0290913B020196D8
:10F3C00090933B0280933A0280913C0290913D02DF
:10F3D000019790933D0280933C022F5F3F4F3196FF
:10F3E00026173707D1F666C080913C0290913D0206
:10F3F0008617970708F4EC01EE24FF2422C086014B
:10F400000E0D1F1D80913A0290913B028C569F4138
:10F410000E94E6F7F801808380913A0290913B02C6
:10F42000019690933B0280933A0280913C02909126
:10F430003D02019790933D0280933C020894E11CA9
:10F44000F11CEC16FD06D9F680913C0290913D022C
:10F45000892BF1F5D0933D02C0933C0235C08091D9
:10F460003C0290913D028617970708F4BC0120E00A
:10F4700030E01DC0D601A20FB31FE0913A02F09117
:10F480003B0280818C9380913A0290913B020196DD
:10F4900090933B0280933A0280913C0290913D020E
:10F4A000019790933D0280933C022F5F3F4F2617B8
:10F4B000370701F780913C0290913D02892B41F47E
:10F4C00070933D0260933C0281E003C08FEF01C066
:10F4D00080E090E0DF91CF911F910F91FF90EF902E
:10F4E000DF90CF90089580913E02813069F08130A5
:10F4F00018F0843011F511C00E94B2F66FEF85E963
:10F5000090EE0E94DDF717C085E990EE0E94E6F7C5
:10F510008F3F99F40E94C6FA0EC085E990EE0E94D2
:10F52000E6F78F3F51F44AE050E064E970EE80E086
:10F5300091E00E94D4F781E001C080E090E008955E
:10F54000F999FECFFC01E1BDF2BDF89A80B590E0DB
:10F550000895F999FECFFC01E1BDF2BD60BDFA9AB4
:10F56000F99A0895DC010EC08C91F999FECFFB0148
:10F57000E1BDF2BD80BDFA9AF99A11966F5F7F4F97
:10F58000415050404115510579F7089520E030E091
:10F59000F999FECFF901E1BDF2BDF89A80B58F3F30
:10F5A00049F0F999FECF8FEFF901E1BDF2BD80BDC1
:10F5B000FA9AF99A2F5F3F4F80E12030380740F3E5
:10F5C00008959C01DB010CC0F999FECFF901E1BD62
:10F5D000F2BDF89A80B58D932F5F3F4F4150504058
:0AF5E0004115510589F70895FFCF8A
:0AF5EA00FFFFFFFFFFFFFF0000001E
:06FFFA000E94DAF60895F2
:040000031000E00009
:00000001FF
